{
  "contractName": "FitnessTracker",
  "abi": [
    {
      "inputs": [],
      "stateMutability": "nonpayable",
      "type": "constructor"
    },
    {
      "anonymous": false,
      "inputs": [
        {
          "indexed": true,
          "internalType": "address",
          "name": "user",
          "type": "address"
        },
        {
          "indexed": false,
          "internalType": "uint256",
          "name": "bmi",
          "type": "uint256"
        },
        {
          "indexed": false,
          "internalType": "string",
          "name": "status",
          "type": "string"
        }
      ],
      "name": "BMICalculated",
      "type": "event"
    },
    {
      "anonymous": false,
      "inputs": [
        {
          "indexed": true,
          "internalType": "address",
          "name": "user",
          "type": "address"
        },
        {
          "indexed": false,
          "internalType": "uint256",
          "name": "index",
          "type": "uint256"
        },
        {
          "indexed": false,
          "internalType": "uint256",
          "name": "newDistance",
          "type": "uint256"
        }
      ],
      "name": "FitnessRecordUpdated",
      "type": "event"
    },
    {
      "anonymous": false,
      "inputs": [
        {
          "indexed": true,
          "internalType": "address",
          "name": "user",
          "type": "address"
        },
        {
          "indexed": false,
          "internalType": "uint256",
          "name": "day",
          "type": "uint256"
        },
        {
          "indexed": false,
          "internalType": "uint256",
          "name": "distance",
          "type": "uint256"
        },
        {
          "indexed": false,
          "internalType": "uint256",
          "name": "timestamp",
          "type": "uint256"
        }
      ],
      "name": "FitnessRecorded",
      "type": "event"
    },
    {
      "inputs": [],
      "name": "owner",
      "outputs": [
        {
          "internalType": "address",
          "name": "",
          "type": "address"
        }
      ],
      "stateMutability": "view",
      "type": "function",
      "constant": true
    },
    {
      "inputs": [
        {
          "internalType": "uint256",
          "name": "distance",
          "type": "uint256"
        }
      ],
      "name": "recordFitness",
      "outputs": [],
      "stateMutability": "nonpayable",
      "type": "function"
    },
    {
      "inputs": [],
      "name": "getFitnessHistory",
      "outputs": [
        {
          "components": [
            {
              "internalType": "uint256",
              "name": "day",
              "type": "uint256"
            },
            {
              "internalType": "uint256",
              "name": "distance",
              "type": "uint256"
            },
            {
              "internalType": "uint256",
              "name": "timestamp",
              "type": "uint256"
            }
          ],
          "internalType": "struct FitnessTracker.FitnessRecord[]",
          "name": "",
          "type": "tuple[]"
        }
      ],
      "stateMutability": "view",
      "type": "function",
      "constant": true
    },
    {
      "inputs": [
        {
          "internalType": "uint256",
          "name": "index",
          "type": "uint256"
        }
      ],
      "name": "getFitnessRecord",
      "outputs": [
        {
          "components": [
            {
              "internalType": "uint256",
              "name": "day",
              "type": "uint256"
            },
            {
              "internalType": "uint256",
              "name": "distance",
              "type": "uint256"
            },
            {
              "internalType": "uint256",
              "name": "timestamp",
              "type": "uint256"
            }
          ],
          "internalType": "struct FitnessTracker.FitnessRecord",
          "name": "",
          "type": "tuple"
        }
      ],
      "stateMutability": "view",
      "type": "function",
      "constant": true
    },
    {
      "inputs": [],
      "name": "getFitnessHistoryLength",
      "outputs": [
        {
          "internalType": "uint256",
          "name": "",
          "type": "uint256"
        }
      ],
      "stateMutability": "view",
      "type": "function",
      "constant": true
    },
    {
      "inputs": [
        {
          "internalType": "uint256",
          "name": "weight",
          "type": "uint256"
        },
        {
          "internalType": "uint256",
          "name": "height",
          "type": "uint256"
        }
      ],
      "name": "calculateBMI",
      "outputs": [],
      "stateMutability": "nonpayable",
      "type": "function"
    },
    {
      "inputs": [],
      "name": "getTotalDistance",
      "outputs": [
        {
          "internalType": "uint256",
          "name": "",
          "type": "uint256"
        }
      ],
      "stateMutability": "view",
      "type": "function",
      "constant": true
    },
    {
      "inputs": [],
      "name": "clearFitnessHistory",
      "outputs": [],
      "stateMutability": "nonpayable",
      "type": "function"
    }
  ],
  "bytecode": "0x608060405234801561001057600080fd5b50336000806101000a81548173ffffffffffffffffffffffffffffffffffffffff021916908373ffffffffffffffffffffffffffffffffffffffff160217905550610f7f806100606000396000f3fe608060405234801561001057600080fd5b50600436106100885760003560e01c80638da5cb5b1161005b5780638da5cb5b146100ef578063a31167791461010d578063daf8dd3f14610129578063ea5296ff1461015957610088565b80630c829bfb1461008d57806328e88c57146100ab5780633ca15f81146100b55780635e5f5a33146100d3575b600080fd5b610095610177565b6040516100a291906109f1565b60405180910390f35b6100b3610231565b005b6100bd61027e565b6040516100ca9190610a22565b60405180910390f35b6100ed60048036038101906100e89190610a6e565b6102c8565b005b6100f76104cb565b6040516101049190610aef565b60405180910390f35b61012760048036038101906101229190610b0a565b6104ef565b005b610143600480360381019061013e9190610b0a565b610646565b6040516101509190610b79565b60405180910390f35b610161610761565b60405161016e9190610a22565b60405180910390f35b6060600160003373ffffffffffffffffffffffffffffffffffffffff1673ffffffffffffffffffffffffffffffffffffffff168152602001908152602001600020805480602002602001604051908101604052809291908181526020016000905b8282101561022857838290600052602060002090600302016040518060600160405290816000820154815260200160018201548152602001600282015481525050815260200190600101906101d8565b50505050905090565b600160003373ffffffffffffffffffffffffffffffffffffffff1673ffffffffffffffffffffffffffffffffffffffff168152602001908152602001600020600061027c9190610873565b565b6000600160003373ffffffffffffffffffffffffffffffffffffffff1673ffffffffffffffffffffffffffffffffffffffff16815260200190815260200160002080549050905090565b6000821180156102d85750600081115b610317576040517f08c379a000000000000000000000000000000000000000000000000000000000815260040161030e90610c17565b60405180910390fd5b600081826103259190610c66565b600a612710856103359190610c66565b61033f9190610c66565b6103499190610cef565b9050606060b9821015610393576040518060400160405280600b81526020017f556e6465727765696768740000000000000000000000000000000000000000008152509050610475565b60b982101580156103a4575060f982105b156103e6576040518060400160405280600d81526020017f4e6f726d616c20776569676874000000000000000000000000000000000000008152509050610474565b60fa82101580156103f8575061012b82105b1561043a576040518060400160405280600a81526020017f4f766572776569676874000000000000000000000000000000000000000000008152509050610473565b6040518060400160405280600581526020017f4f6265736500000000000000000000000000000000000000000000000000000081525090505b5b5b3373ffffffffffffffffffffffffffffffffffffffff167fa2a789e1027c343c372fc2305984aeec2065a4e2eb3a01d89b175fc58962d22183836040516104bd929190610da8565b60405180910390a250505050565b60008054906101000a900473ffffffffffffffffffffffffffffffffffffffff1681565b600060018060003373ffffffffffffffffffffffffffffffffffffffff1673ffffffffffffffffffffffffffffffffffffffff1681526020019081526020016000208054905061053f9190610dd8565b9050600042905060006040518060600160405280848152602001858152602001838152509050600160003373ffffffffffffffffffffffffffffffffffffffff1673ffffffffffffffffffffffffffffffffffffffff16815260200190815260200160002081908060018154018082558091505060019003906000526020600020906003020160009091909190915060008201518160000155602082015181600101556040820151816002015550503373ffffffffffffffffffffffffffffffffffffffff167fe4bc0f37206739cb7a9f7caef1530312f6bbc40de755e8907043e2a78f40bbca84868560405161063893929190610e2e565b60405180910390a250505050565b61064e610897565b600160003373ffffffffffffffffffffffffffffffffffffffff1673ffffffffffffffffffffffffffffffffffffffff1681526020019081526020016000208054905082106106d2576040517f08c379a00000000000000000000000000000000000000000000000000000000081526004016106c990610eb1565b60405180910390fd5b600160003373ffffffffffffffffffffffffffffffffffffffff1673ffffffffffffffffffffffffffffffffffffffff168152602001908152602001600020828154811061072357610722610ed1565b5b906000526020600020906003020160405180606001604052908160008201548152602001600182015481526020016002820154815250509050919050565b600080600090506000600160003373ffffffffffffffffffffffffffffffffffffffff1673ffffffffffffffffffffffffffffffffffffffff168152602001908152602001600020805480602002602001604051908101604052809291908181526020016000905b8282101561081957838290600052602060002090600302016040518060600160405290816000820154815260200160018201548152602001600282015481525050815260200190600101906107c9565b50505050905060005b815181101561086a5781818151811061083e5761083d610ed1565b5b602002602001015160200151836108559190610dd8565b9250808061086290610f00565b915050610822565b50819250505090565b508054600082556003029060005260206000209081019061089491906108b8565b50565b60405180606001604052806000815260200160008152602001600081525090565b5b808211156108e35760008082016000905560018201600090556002820160009055506003016108b9565b5090565b600081519050919050565b600082825260208201905092915050565b6000819050602082019050919050565b6000819050919050565b61092681610913565b82525050565b606082016000820151610942600085018261091d565b506020820151610955602085018261091d565b506040820151610968604085018261091d565b50505050565b600061097a838361092c565b60608301905092915050565b6000602082019050919050565b600061099e826108e7565b6109a881856108f2565b93506109b383610903565b8060005b838110156109e45781516109cb888261096e565b97506109d683610986565b9250506001810190506109b7565b5085935050505092915050565b60006020820190508181036000830152610a0b8184610993565b905092915050565b610a1c81610913565b82525050565b6000602082019050610a376000830184610a13565b92915050565b600080fd5b610a4b81610913565b8114610a5657600080fd5b50565b600081359050610a6881610a42565b92915050565b60008060408385031215610a8557610a84610a3d565b5b6000610a9385828601610a59565b9250506020610aa485828601610a59565b9150509250929050565b600073ffffffffffffffffffffffffffffffffffffffff82169050919050565b6000610ad982610aae565b9050919050565b610ae981610ace565b82525050565b6000602082019050610b046000830184610ae0565b92915050565b600060208284031215610b2057610b1f610a3d565b5b6000610b2e84828501610a59565b91505092915050565b606082016000820151610b4d600085018261091d565b506020820151610b60602085018261091d565b506040820151610b73604085018261091d565b50505050565b6000606082019050610b8e6000830184610b37565b92915050565b600082825260208201905092915050565b7f57656967687420616e6420686569676874206d7573742062652067726561746560008201527f72207468616e207a65726f000000000000000000000000000000000000000000602082015250565b6000610c01602b83610b94565b9150610c0c82610ba5565b604082019050919050565b60006020820190508181036000830152610c3081610bf4565b9050919050565b7f4e487b7100000000000000000000000000000000000000000000000000000000600052601160045260246000fd5b6000610c7182610913565b9150610c7c83610913565b9250817fffffffffffffffffffffffffffffffffffffffffffffffffffffffffffffffff0483118215151615610cb557610cb4610c37565b5b828202905092915050565b7f4e487b7100000000000000000000000000000000000000000000000000000000600052601260045260246000fd5b6000610cfa82610913565b9150610d0583610913565b925082610d1557610d14610cc0565b5b828204905092915050565b600081519050919050565b60005b83811015610d49578082015181840152602081019050610d2e565b83811115610d58576000848401525b50505050565b6000601f19601f8301169050919050565b6000610d7a82610d20565b610d848185610b94565b9350610d94818560208601610d2b565b610d9d81610d5e565b840191505092915050565b6000604082019050610dbd6000830185610a13565b8181036020830152610dcf8184610d6f565b90509392505050565b6000610de382610913565b9150610dee83610913565b9250827fffffffffffffffffffffffffffffffffffffffffffffffffffffffffffffffff03821115610e2357610e22610c37565b5b828201905092915050565b6000606082019050610e436000830186610a13565b610e506020830185610a13565b610e5d6040830184610a13565b949350505050565b7f496e76616c696420696e64657800000000000000000000000000000000000000600082015250565b6000610e9b600d83610b94565b9150610ea682610e65565b602082019050919050565b60006020820190508181036000830152610eca81610e8e565b9050919050565b7f4e487b7100000000000000000000000000000000000000000000000000000000600052603260045260246000fd5b6000610f0b82610913565b91507fffffffffffffffffffffffffffffffffffffffffffffffffffffffffffffffff821415610f3e57610f3d610c37565b5b60018201905091905056fea26469706673582212207be5fdf44ff70df3e98ecb8d597c4997a9d510e52a376ff5042bbb4911905a9e64736f6c63430008090033",
  "immutableReferences": {},
  "source": "// SPDX-License-Identifier: MIT\npragma solidity ^0.8.0;\n\ncontract FitnessTracker {\n    address public owner;\n\n    struct FitnessRecord {\n        uint256 day;\n        uint256 distance;\n        uint256 timestamp;\n    }\n\n    mapping(address => FitnessRecord[]) private runningDistances;\n\n    event FitnessRecorded(address indexed user, uint256 day, uint256 distance, uint256 timestamp);\n    event FitnessRecordUpdated(address indexed user, uint256 index, uint256 newDistance);\n    event BMICalculated(address indexed user, uint256 bmi, string status);\n\n    constructor() {\n        owner = msg.sender;\n    }\n\n    modifier onlyOwner() {\n        require(msg.sender == owner, \"Not the contract owner\");\n        _;\n    }\n\n    function recordFitness(uint256 distance) public {\n        uint256 day = runningDistances[msg.sender].length + 1; // Increment day number by 1 for each new record\n        uint256 timestamp = block.timestamp; // Get the current block timestamp\n        FitnessRecord memory record = FitnessRecord(day, distance, timestamp);\n        runningDistances[msg.sender].push(record);\n        emit FitnessRecorded(msg.sender, day, distance, timestamp);\n    }\n\n    function getFitnessHistory() public view returns (FitnessRecord[] memory) {\n        return runningDistances[msg.sender];\n    }\n\n    function getFitnessRecord(uint256 index) public view returns (FitnessRecord memory) {\n        require(index < runningDistances[msg.sender].length, \"Invalid index\");\n        return runningDistances[msg.sender][index];\n    }\n\n    function getFitnessHistoryLength() public view returns (uint256) {\n        return runningDistances[msg.sender].length;\n    }\n\n    function calculateBMI(uint256 weight, uint256 height) public {\n        require(weight > 0 && height > 0, \"Weight and height must be greater than zero\");\n        uint256 bmi = (weight * 10000 * 10) / (height * height); // BMI formula: weight(kg) / height(m)^2\n\n        string memory status;\n\n        if (bmi < 185) {\n            status = \"Underweight\";\n        } else if (bmi >= 185 && bmi < 249) {\n            status = \"Normal weight\";\n        } else if (bmi >= 250 && bmi < 299) {\n            status = \"Overweight\";\n        } else {\n            status = \"Obese\";\n        }\n\n        emit BMICalculated(msg.sender, bmi, status);\n    }\n\n    function getTotalDistance() public view returns (uint256) {\n        uint256 totalDistance = 0;\n        FitnessRecord[] memory records = runningDistances[msg.sender];\n        for (uint256 i = 0; i < records.length; i++) {\n            totalDistance += records[i].distance;\n        }\n        return totalDistance;\n    }\n\n    function clearFitnessHistory() public {\n        delete runningDistances[msg.sender];\n    }\n}\n\n",
  "sourcePath": "/workspace/SCM-Starter/contracts/Assessment.sol",
  "compiler": {
    "name": "solc",
    "version": "0.8.9+commit.e5eed63a.Emscripten.clang"
  },
  "schemaVersion": "3.4.14",
  "updatedAt": "2023-07-24T15:56:15.817Z",
  "networkType": "ethereum",
  "devdoc": {
    "kind": "dev",
    "methods": {},
    "version": 1
  },
  "userdoc": {
    "kind": "user",
    "methods": {},
    "version": 1
  }
}